:020000040800F2
:1000000048100020AD010008A53D0008452A000861
:10001000493D00086D1D00089161000800000000C6
:100020000000000000000000000000007551000802
:100030000124000800000000B9470008C5010008BD
:10004000C7010008C7010008C7010008C701000870
:10005000C7010008C7010008C7010008C701000860
:1000600005250008C7010008C7010008C7010008EE
:10007000C7010008C7010008C7010008C701000840
:10008000C7010008C7010008C70100080000000000
:10009000000000000000000000000000C701000890
:1000A000C7010008C7010008C7010008C701000810
:1000B000C7010008C701000825560008C70100084D
:1000C000C7010008C7010008C7010008C7010008F0
:1000D000C7010008D95D00083D5E0008000000006F
:1000E000C7010008C7010008C701000800000000A0
:1000F000000000000000000000000000C701000830
:1001000000000000C7010008C7010008C70100087F
:1001100000000000000000000000000000000000DF
:10012000C7010008C7010008C7010008C70100088F
:10013000C7010008000000000000000000000000EF
:10014000000000000000000000000000C7010008DF
:10015000C7010008C7010008C7010008C70100085F
:10016000C7010008C70100080000000000000000EF
:10017000000000000000000000000000000000007F
:1001800000000000C701000800000000000000009F
:10019000C7010008C7010008DFF80CD000F02EFBF3
:1001A00000480047B58300084810002006488047F3
:1001B00006480047FEE7FEE7FEE7FEE7FEE7FEE74C
:1001C000FEE7FEE7FEE7FEE7495500089901000853
:1001D0000649074A0868504343F239021044086050
:1001E0004008704701490860704700001C03002068
:1001F0006D4EC64140EA01039B0703D009E008C9E0
:10020000121F08C0042AFAD203E011F8013B00F8DB
:10021000013B521EF9D270472DE9FE4F804681EA1C
:100220000300C00F0C46009021F0004123F0004570
:10023000B8EB0200A94105D24046214690461C4633
:100240000B46024623F00040104347D0270DC7F36A
:100250000A00C3F30A510290401A019040286BDA59
:10026000C3F3130040F4801B0098924620B1002392
:10027000D2EB030A63EB0B0B01985946C0F1400225
:10028000504600F0F4F906460D4650465946019A8C
:1002900000F00CFA10EB08006141002487EA1152CB
:1002A00084EAE7731A4340D0009A62B3019A012AA4
:1002B0004FEA075215DC001B61EB02014FF00042D0
:1002C00002EA0752CDE90042001C41F58011324696
:1002D0002B4600F043FA03B0BDE8F08F40462146BC
:1002E000F9E7001B61EB0201001C41F580130018C7
:1002F0005B412018A2F5001747EB030140EAD570D7
:10030000B6196D4111E06D084FEA360645EAC07531
:100310004FEA0752001B61EB0201001C41F58011FE
:1003200049084FEA30000019514132462B4603B0CC
:10033000BDE8F04F00F003BA00980122400000230E
:10034000D0EB020263EBE073009821464FEAE074C1
:10035000B8EB000061EB0401E9E783F000435BE7E1
:1003600081F0004158E72DE9FE4F81EA030404F0D3
:10037000004421F0004100944FF0000B23F00043B3
:1003800050EA01045ED052EA03045BD0C3F30A547E
:10039000C1F30A552C44A4F2F3340194A0FB025497
:1003A000C1F3130141F48011C3F3130343F4801329
:1003B00001FB024400FB034E840A970A44EA81547D
:1003C00047EA8357A4FB076802958D0A05FB07855A
:1003D0004FEA932C04FB0C542705029D4FEA065864
:1003E00047EA1637B5EB08056EEB070C870E920E41
:1003F00047EA811742EA8312A7FB0201B6EB0B0121
:1004000064EB00042B0D43EA0C335E1844EB1C50E4
:10041000DA465146E7FB0201C5F313044FEA0B33FA
:1004200043EA14534FEA0432019C43EA0603A4F161
:100430000C040294009CCDE900B400F08FF903B0E5
:10044000BDE8F08F00200146F9E72DE9F04D81EA83
:10045000030404F0004B21F0004514464FF0000A5D
:1004600023F0004150EA050220D054EA01021DD0D9
:10047000C5F30A570246C5F31303C1F31300C1F3D2
:100480000A5640F4801543F48013A7EB0608101BAE
:10049000D64608F2FD3873EB050002D308F10108D7
:1004A00001E092185B41B8F1000F03DA0020014629
:1004B000BDE8F08D00204FF48011064684460EE022
:1004C000171B73EB050705D3121B63EB05030643EC
:1004D0004CEA010C49084FEA300092185B4150EA9F
:1004E0000107EDD152EA030012D082EA040083EA48
:1004F0000501084305D0101BAB4106D201220023A1
:1005000006E000224FF0004302E06FF001025310BA
:100510001AEB06004CEB085110EB0A0041EB0B0103
:10052000BDE8F04D00F00BB90EB5C10F80EAE070E8
:100530000844CA07002140F233438DE80E000A4602
:100540000B4600F00BF903B000BDC1F30A5210B521
:10055000C1F3130140F2FF3341F480119A4201DAF2
:10056000002010BD40F233439A42A2F2334203DC32
:10057000524200F08BF810BD904010BD00F00042D8
:1005800030F000400AD0C10D01F56071C0F31600D3
:1005900042EA0151C208400711437047002001465A
:1005A0007047000030B5041E71F1000404DB4FF009
:1005B0000044404264EB0101141E73F1000405DBAA
:1005C0001C464FF00043524263EB04038B4208BFCA
:1005D000824230BD01F0004330B421F0004150EAC6
:1005E000010206D00A0DA2F56072C1F31301002AC0
:1005F00002DC30BC00207047440F44EAC104C10053
:10060000E01830BC00EBC25000F062B82DE9F05F9A
:100610000546002092469B46884606468146402471
:100620001BE0284641464746224600F02FF8534635
:100630005A46C01A914110D311461846224600F07E
:1006400016F82D1A67EB01084F46224601200021BB
:1006500000F00DF817EB00094E41201EA4F1010433
:10066000DFDC484631462A464346BDE8F09F202A53
:1006700004DB203A00FA02F1002070479140C2F1F9
:10068000200320FA03F3194390407047202A04DB2B
:10069000203A21FA02F00021704721FA02F3D040FB
:1006A000C2F120029140084319467047202A06DB18
:1006B000CB17203A41FA02F043EAE07306E041FA30
:1006C00002F3D040C2F1200291400843194670471E
:1006D0000029A8BF7047401C490008BF20F0010056
:1006E000704710B4B0FA80FC00FA0CF050EA010434
:1006F00004BF10BC704749B1CCF1200421FA04F4C6
:1007000011FA0CF118BF012121430843A3EB0C019E
:10071000CB1D4FEA00614FEA102042BF002010BC01
:10072000704700EBC35010440029A4BF10BC7047B1
:10073000401C490008BF20F0010010BC704710B5F4
:10074000141E73F1000408DA401C41F100019218F4
:100750005B411A4301D120F0010010BD2DE9F04D9D
:1007600092469B4611B1B1FA81F202E0B0FA80F2F2
:1007700020329046FFF77BFF04460F4640EA0A000E
:1007800041EA0B0153465A46084313D0114653EA37
:10079000010019D0C8F140025046FFF777FF054627
:1007A0000E46504659464246FFF761FF084305D0C2
:1007B000012004E020463946BDE8F08D00200543C5
:1007C00046EAE0762C4337430A986305E40AA0EB37
:1007D00008000022FD0A44EA47540A3002D50020EE
:1007E0000146E9E7010510196941DDE908450019ED
:1007F0006941BDE8F04DA2E700207047064C074D67
:1008000006E0E06840F0010394E8070098471034E0
:10081000AC42F6D3FFF7C4FCB8890008D8890008B9
:100820002DE9F04D00231A461B1A8A4103DB0020F4
:100830000146BDE8F08DC1F30A52C1F3130141F442
:1008400080154FF0000BD10702D100186D41521EE8
:100850000027044640F2FF11384601EB620A3E468B
:100860008046024600204FF48011FFF70FFFC219A7
:100870007141BB1846EB0100B4EB030C75EB000CA7
:1008800004D3E41A65EB000517460E46241908F157
:1008900001006D4180463428E3DDF91946EB06007E
:1008A000091BA84103D24FF0FF32134601E000229A
:1008B00013461BEB070046EB0A51BDE8F04DFFF76E
:1008C0003EBF70B58C1810F8015B15F0070301D11D
:1008D00010F8013B2A1106D110F8012B03E010F8A3
:1008E000016B01F8016B5B1EF9D12B0705D40023C6
:1008F000521E0DD401F8013BFAE710F8013BCB1A68
:10090000921C03E013F8015B01F8015B521EF9D55C
:10091000A142D8D3002070BD10B504F0DCF904F07A
:100920004FFA642007F0C2FC04F0D5F9642007F008
:10093000BDFC04F045FA642007F0B8FC04F0CBF9E4
:10094000642007F0B3FC04F03BFA642007F0AEFC2F
:1009500004F0C1F910BD21B1826842F00102826049
:1009600003E0826822F00102826070470021084A99
:100970001168084A1140D0E900231A4383681A43DA
:10098000C3681A431143044AC2F8041370470000B5
:1009900004230140E030FCFF002001400146C86C08
:1009A00080B270470246002013680B400BB1012053
:1009B00000E000207047000030B502460020002310
:1009C0005068104C20400D790C6844EA05242043FF
:1009D000506090680C4C2040D1E903542C438D6842
:1009E0002C434D7944EA450420439060D06A20F4BA
:1009F00070000C7D641EE4B2234340EA0350D062D1
:100A000030BD0000FFFEFFFCFDF7FFC0F0B504465F
:100A10000D4600200021092D11DDE068A5F10A0630
:100A200006EB4607072606FA07F18843A5F10A06F2
:100A300006EB460603FA06F10843E0600CE0206985
:100A400005EB4507072606FA07F1884305EB45063F
:100A500003FA06F108432061072A0FDA606B561E7D
:100A600006EB86071F2606FA07F18843561E06EB9B
:100A7000860605FA06F10843606322E00D2A0FDAC4
:100A8000206BD61F06EB86071F2606FA07F1884360
:100A9000D61F06EB860605FA06F10843206310E030
:100AA000E06AA2F10D0606EB86071F2606FA07F19B
:100AB0008843A2F10D0606EB860605FA06F1084307
:100AC000E062F0BD816841F08041816070470000C4
:100AD00010B586B0E2480078401CE1490870E14852
:100AE0000078401CDF490870DF480078401CDE4970
:100AF0000870DE480078401CDC490870DC4800784B
:100B0000401CDB490870D6480078372805DB0020F8
:100B1000D34908700120D7494870D2480078052889
:100B200005DB0020CF4908700120D2498870CE48EB
:100B30000078142805DB0020CB4908700120CD493E
:100B4000C870CA480078232805DB0020C749087010
:100B50000120C8490871C64800783C2805DB002000
:100B6000C34908700120C3494871C2484078D8B1D0
:100B70000020C0494870C048D0ED021AB0EE611A9A
:100B8000D0ED011AF0EE610AD0ED001AB0EE610A64
:100B9000BA4802780021BA48D0ED001AFDEEE11AF9
:100BA00011EE900A00F040FFB2488078002863D030
:100BB0000020B04988700290039004900590B148DD
:100BC00090ED020ABDEEC00A10EE100A00B200EE6F
:100BD000100AB8EEC00ADFEDAC0A20EE200ABDEE26
:100BE000C00A10EE100A00B2A64991ED010ABDEE4E
:100BF000C00A10EE101A09B200EE101AB8EEC00AC0
:100C0000DFEDA10A20EE200ABDEEC00A10EE101A98
:100C100009B29C4CCDE9001094ED000ABDEEC00A6B
:100C200010EE104A24B200EE104AB8EEC00ADFED12
:100C3000960A20EE200ABDEEC00A10EE104A23B23A
:100C4000924C94ED020ABDEEC00A10EE104A22B298
:100C50008E4C94ED010ABDEEC00A10EE104A21B28E
:100C60008A4C94ED000ABDEEC00A10EE104A20B284
:100C700000F01CFE01F07CFA7E48C07810B1002024
:100C80007C49C8707B48007910B10020794908710F
:100C90007848407990B10020764948717C4991EDBF
:100CA000020ADFED7C0A20EE200ABCEEC00A10EE3C
:100CB000101A88B24FF4E47100F0AEFD6D488079EF
:100CC00060B300206B4988717348D0ED024AB0EEE2
:100CD000644AD0ED014AF0EE643AD0ED004AB0EE3D
:100CE000643A6E48D0ED024AF0EE642AD0ED014A33
:100CF000B0EE642AD0ED004AF0EE641A6848D0EDF8
:100D0000024AB0EE641AD0ED014AF0EE640AD0ED6A
:100D1000004AB0EE640A012000F060FC5548C0793A
:100D200060B300205349C8715E48D0ED024AB0EE6E
:100D3000644AD0ED014AF0EE643AD0ED004AB0EEDC
:100D4000643A5948D0ED024AF0EE642AD0ED014AE7
:100D5000B0EE642AD0ED004AF0EE641A5348D0EDAC
:100D6000024AB0EE641AD0ED014AF0EE640AD0ED0A
:100D7000004AB0EE640A022000F030FC3D48007AE0
:100D800028B300203B490872494890ED023AF0EE42
:100D9000432A90ED013AB0EE432A90ED003AF0EE8E
:100DA000431A444890ED023AB0EE431A90ED013AEE
:100DB000F0EE430A90ED003AB0EE430A9FED3E4A52
:100DC000DFED3D3A9FED3C3A032000F007FC294857
:100DD000407AE8B3002027494872B7EE004ADFEDB9
:100DE000373AB0EE003ADFED362A9FED362ADFEDD6
:100DF000361A9FED331ADFED330A9FED330A0120D7
:100E000000F0ECFBB7EE004ADFED2B3AB0EE0C3A07
:100E1000DFED2A2A9FED2D2ADFED2D1A9FED271AEF
:100E2000DFED2A0A9FED2A0A022000F0D7FB9FED92
:100E3000224ADFED213A9FED203ADFED1F2A9FED98
:100E40001E2ADFED1D1A9FED1C1ADFED1B0A00E0C4
:100E500004E09FED190A032000F0C0FB06B010BDAE
:100E6000F5020020F6020020F7020020F802002020
:100E7000F9020020D80B0020E0080020C902002061
:100E8000D4020020EC080020A34C65420409002095
:100E9000340200200000C842840A0020480A0020D2
:100EA0000C0A0020D00900209409002058090020D5
:100EB000FC0A0020C00A002000000000CDCC4C3D00
:100EC000F6285C3F0AD7A33B7B146E3F0AD7233C2E
:100ED000333313402DE9F0412DED048B04460D46CC
:100EE0000026002704E0E05D3044C6B2781CC7B29B
:100EF000681EB842F7DC601910F8010CB04203D04C
:100F0000BDEC048BBDE8F0812078AA2802D160787E
:100F1000AF2800D0F4E7A07801283ED1207901283D
:100F20000AD1FE48007840F00200FC490870002019
:100F3000FB49088048808880207902280AD1F74838
:100F4000007840F00100F54908700020F54908805C
:100F500048808880207903280AD1F048007840F042
:100F60000200EE4908700846007840F00100087061
:100F7000207904280FD1EC48007880F00100EA497C
:100F800008700846007818B10120E849087002E0AE
:100F90000020E649087003F09FFAA078022812D1D9
:100FA0002079012803D1E2498871C871087220793B
:100FB000A02802D10120DE4908702079A12802D1A1
:100FC0000120DB494872A07810287CD121790902E0
:100FD00009B2627941EA0200FFF7A6FA41EC190B67
:100FE0009FEDD40B53EC102BFFF7BDF941EC180B20
:100FF000FFF7F0FAD1490860A179090209B2E27954
:1010000041EA0200FFF790FA41EC190B9FEDC90B82
:1010100053EC102BFFF7A7F941EC180BFFF7DAFAA6
:10102000C6494860217A090209B2627A41EA02009F
:10103000FFF77AFA41EC190B9FEDBE0B53EC102B26
:10104000FFF791F941EC180BFFF7C4FABB49886030
:10105000A17A090209B2E27A41EA0200FFF764FAD2
:1010600041EC190B9FEDB30B53EC102BFFF77BF901
:1010700041EC180BFFF7AEFAB1490860217B090279
:1010800009B2627B41EA0200FFF74EFA41EC190B0C
:101090009FEDA80B53EC102BFFF765F941EC180BF3
:1010A000FFF798FAA6494860A17B090209B2E27BE2
:1010B00041EA0200FFF738FA41EC190B9FED9D0B56
:1010C00053EC102B00E04FE0FFF74DF941EC180B0B
:1010D000FFF780FA9A498860217C090209B2627C94
:1010E00041EA0200FFF720FA41EC190B9FED910B4A
:1010F00053EC102BFFF737F941EC180BFFF76AFAA6
:1011000090490860A17C090209B2E27C41EA020030
:10111000FFF70AFA41EC190B9FED860B53EC102BED
:10112000FFF721F941EC180BFFF754FA85494860A5
:10113000217D090209B2627D41EA0200FFF7F4F95C
:1011400041EC190B9FED7B0B53EC102BFFF70BF9C8
:1011500041EC180BFFF73EFA7A498860A0783146D7
:1011600000F010FA03F0B8F9A07811287ED12179A7
:10117000090209B2627941EA0200FFF7D5F941ECB0
:10118000190B9FED6C0B53EC102BFFF7ECF841ECB7
:10119000180BFFF71FFA6C490860A179090209B220
:1011A000E27941EA0200FFF7BFF941EC190B9FED2C
:1011B000610B53EC102BFFF7D6F841EC180BFFF73F
:1011C00009FA61494860217A090209B2627A41EA62
:1011D0000200FFF7A9F941EC190B9FED560B53ECF8
:1011E000102BFFF7C0F841EC180BFFF7F3F9564945
:1011F0008860A17A090209B2E27A41EA0200FFF7A7
:1012000093F941EC190B9FED4B0B53EC102BFFF7AF
:10121000AAF841EC180BFFF7DDF94C490860217B77
:10122000090209B2627B41EA0200FFF77DF941EC55
:10123000190B9FED400B53EC102BFFF794F841EC8A
:10124000180BFFF7C7F941494860A17B090209B2B1
:10125000E27B41EA0200FFF767F941EC190B9FEDD1
:10126000350B53EC102BFFF77EF800E04DE041EC1E
:10127000180BFFF7AFF935498860217C090209B2E4
:10128000627C41EA0200FFF74FF941EC190B9FED38
:10129000290B53EC102BFFF766F841EC180BFFF706
:1012A00099F92B490860A17C090209B2E27C41EA64
:1012B0000200FFF739F941EC190B9FED1E0B53ECBF
:1012C000102BFFF750F841EC180BFFF783F920497A
:1012D0004860217D090209B2627D41EA0200FFF700
:1012E00023F941EC190B9FED130B53EC102BFFF777
:1012F0003AF841EC180BFFF76DF915498860A078B2
:10130000314600F03FF903F0E7F8A07812287CD1CD
:101310002179090209B262791CE000002002002054
:101320000E02002008020020F4020020C902002062
:10133000D80B0020FCA9F1D24D62503F0C0A0020CE
:10134000480A0020840A002058090020940900203F
:10135000D009002041EA0200FFF7E6F841EC190B42
:101360001FED0C0B53EC102BFEF7FDFF41EC180B9F
:10137000FFF730F947490860A179090209B2E2791B
:1013800041EA0200FFF7D0F841EC190B1FED170BF3
:1013900053EC102BFEF7E7FF41EC180BFFF71AF99F
:1013A0003C494860217A090209B2627A41EA0200A6
:1013B000FFF7BAF841EC190B1FED220B53EC102B81
:1013C000FEF7D1FF41EC180BFFF704F931498860B3
:1013D000A17A090209B2E27A41EA0200FFF7A4F811
:1013E00041EC190B1FED2D0B53EC102BFEF7BBFF3F
:1013F00041EC180BFFF7EEF827490860217B090242
:1014000009B2627B41EA020000E02BE0FFF78CF8B2
:1014100041EC190B1FED390B53EC102BFEF7A3FF1A
:1014200041EC180BFFF7D6F81B494860A17B090275
:1014300009B2E27B41EA0200FFF776F841EC190BB2
:101440001FED440B53EC102BFEF78DFF41EC180BF6
:10145000FFF7C0F810498860A078314600F092F894
:1014600003F03AF8A078132803D1A078314600F0B1
:1014700089F8A078142803D1A078314600F082F8CA
:10148000A078152803D1A078314600F07BF800BF82
:1014900036E50000C00A0020FC0A002010B5044612
:1014A0003448007838B9AA2C05D101203149087098
:1014B000314804705DE02F480078012807D1AF2C37
:1014C00005D102202B4908702B48447051E029486F
:1014D0000078022807D1F12C05DA0320254908708D
:1014E0002548847045E02348007803280CD1322C2D
:1014F0000ADA04201F4908701F48C4701F4804708E
:1015000000201F49087034E01A480078042819D1D7
:101510001A480078002815DD18480078401E174941
:1015200008701748007816490978491C144A117048
:10153000001D11490C5411480078D0B905200D49FF
:10154000087016E00B48007805280FD100200949E3
:1015500008700B480078001D07490C5408480078B3
:10156000401DC1B20448FFF7B5FC02E0002001496C
:10157000087010BDFC020020140C0020FA020020AC
:10158000FB0200202DE9F04105460E460027AA2067
:101590000D4908704870EF2088700220C870084616
:1015A00005714671002405E00748005D3844C7B264
:1015B000601CC4B2062CF7DB03488771072100F0DA
:1015C00005F8BDE8F0810000E20B002070B504468C
:1015D0000D462946204604F08BFE70BDF0B52DED7A
:1015E0000A8B81B00646B0EE408AF0EE608AB0EE1B
:1015F000419AF0EE619AB0EE42AAF0EE62AAB0EE25
:1016000043BAF0EE63BAB0EE44CA00240027AA221F
:101610002146641C7E4842542146641C425406F113
:101620000F00C2B22146641C794842540022214670
:10163000641C42549FED770A28EE000ABDEEC00AF2
:1016400010EE100A00B200909DF801202146641CA3
:101650006F4842549DF800202146641C42549FED7F
:101660006D0A28EE800ABDEEC00A10EE100A00B224
:1016700000909DF801202146641C654842549DF865
:1016800000202046611CCCB261490A549FED610ADA
:1016900029EE000ABDEEC00A10EE100A00B200905A
:1016A0009DF801202046611CCCB259490A549DF88E
:1016B00000202046611CCCB255490A549FED550AC2
:1016C00029EE800ABDEEC00A10EE100A00B20090AA
:1016D0009DF801202046611CCCB24D490A549DF86A
:1016E00000202046611CCCB249490A549FED490AAA
:1016F0002AEE000ABDEEC00A10EE100A00B20090F9
:101700009DF801202046611CCCB241490A549DF845
:1017100000202046611CCCB23D490A549FED3D0A91
:101720002AEE800ABDEEC00A10EE100A00B2009048
:101730009DF801202046611CCCB235490A549DF821
:1017400000202046611CCCB231490A549FED310A79
:101750002BEE000ABDEEC00A10EE100A00B2009097
:101760009DF801202046611CCCB229490A549DF8FD
:1017700000202046611CCCB225490A549FED250A61
:101780002BEE800ABDEEC00A10EE100A00B20090E7
:101790009DF801202046611CCCB21D490A549DF8D9
:1017A00000202046611CCCB219490A549FED190A49
:1017B0002CEE000ABDEEC00A10EE100A00B2009036
:1017C0009DF801202046611CCCB211490A549DF8B5
:1017D00000202046611CCCB20D490A54201FC8705D
:1017E000002505E00A48405D3844C7B2681CC5B210
:1017F000A542F7DB2046611CCCB205490F542146B7
:101800000348FFF7E3FE01B0BDEC0A8BF0BD00001A
:10181000E20B002000007A442DE9F84306460F460B
:101820000024A046AA222146641C1F484254214697
:10183000641C425405222146641C42540022214665
:10184000641C425400969DF801202146641C4254B9
:101850009DF800202146641C425400979DF8012009
:101860002146641C42549DF800202046611CCCB2E5
:101870000D490A54201FC870002506E00A48405D43
:10188000404400F0FF08681CC5B2A542F6DB2046C4
:10189000611CCCB2044901F8008021460248FFF7E0
:1018A00095FEBDE8F8830000E20B00202DE9F84F1B
:1018B00006460F4690469946DDF828B00024A24619
:1018C000AA222146641C574842542146641C4254B3
:1018D00002222146641C425400222146641C4254C8
:1018E00000969DF801202146641C42549DF800207A
:1018F0002146641C425400979DF801202146641C37
:1019000042549DF800202046611CCCB245490A543F
:10191000CDF800809DF801202046611CCCB24149E1
:101920000A549DF800202046611CCCB23D490A545F
:10193000CDF800909DF801202046611CCCB23949B9
:101940000A549DF800202046611CCCB235490A5447
:10195000CDF800B09DF801202046611CCCB2314981
:101960000A549DF800202046611CCCB22D490A542F
:101970000B9800909DF801202046611CCCB22949AB
:101980000A549DF800202046611CCCB225490A5417
:101990000C9800909DF801202046611CCCB2214992
:1019A0000A549DF800202046611CCCB21D490A54FF
:1019B0000D9800909DF801202046611CCCB2194979
:1019C0000A549DF800202046611CCCB215490A54E7
:1019D0000E9800909DF801202046611CCCB2114960
:1019E0000A549DF800202046611CCCB20D490A54CF
:1019F000201FC870002506E00A48405D504400F0F2
:101A0000FF0A681CC5B2A542F6DB2046611CCCB2B9
:101A1000044901F800A021460248FFF7D7FDBDE8C0
:101A2000F88F0000E20B00202DE9F0432DED048B30
:101A300083B0B0EE408AF0EE608AB0EE419A06467E
:101A40000F4690460024A1460196AA222146641C16
:101A5000494842542146641C425401222146641CD8
:101A6000425400222146641C42549FED440A28EE51
:101A7000000ABDEEC00A10EE100A00B202909DF8F6
:101A800009202146641C3C4842549DF80820214608
:101A9000641C42549FED390A28EE800ABDEEC00A4C
:101AA00010EE100A00B202909DF809202146641C35
:101AB000314842549DF808202046611CCCB22E4982
:101AC0000A549FED2E0A29EE000ABDEEC00A10EE60
:101AD000100A00B202909DF809202146601CC4B291
:101AE000254842549DF808202046611CCCB222496A
:101AF0000A549DF807202046611CCCB21E490A54A6
:101B00009DF806202046611CCCB21B490A549DF862
:101B100005202046611CCCB217490A549DF80420C8
:101B20002046611CCCB214490A542046611CCCB238
:101B300011490F542046611CCCB20F4901F80080B6
:101B4000201FC870002506E00B48405D484400F0A7
:101B5000FF09681CC5B2A542F6DB2046611CCCB269
:101B6000054901F8009021460348FFF72FFD03B017
:101B7000BDEC048BBDE8F083E20B00200000C842FE
:101B800010B502469FED1D1AF0EE410A1C4B1D4C8C
:101B9000247803EB840383ED000A1A4B1B785B1C4B
:101BA000184C237023461B788B4203DA164B1B78A4
:101BB00003B110BD0023144C237000200AE0104B29
:101BC00003EB800393ED001A31EE201AF0EE410A88
:101BD000431CD8B28842F2DB0A4B1B788B4202DBF3
:101BE0000023084C237001EE101AB8EE411AC0EE23
:101BF000811AC2ED001A00BFDBE700000000000000
:101C000040080020860200208702002000B5094815
:101C1000007868B10848007828B1002006490870AB
:101C200003F066F804E001200349087003F053F85C
:101C300000BD000048020020F901002010B52DED84
:101C4000028B002000F0E6FE00EE100AB8EE400A1B
:101C5000F0EE408A06210F48FFF792FF0D4890ED05
:101C6000000AB5EEC00AF1EE10FA09D090ED000AB4
:101C7000D0ED010A20EE200ADFED070A80EE208A6F
:101C8000B0EE000A28EE000A024880ED020ABDEC20
:101C9000028B10BD3402002000F07F4500B58DB0EE
:101CA0000121052002F016FF0121080202F042FF87
:101CB00003208DF8300000208DF832008DF83300BD
:101CC00001200B900BA9264800F015FE01208DF88D
:101CD000300000208DF8320003208DF831003020D4
:101CE0000B900BA91E4800F006FE10211C4800F0C6
:101CF0006DFE20211A4800F069FE4FF400500B9051
:101D00000BA9184800F0F7FD4FF40051154800F0FA
:101D10005DFE002001904FF480300290002003907F
:101D2000049001A8FEF722FE002005908DF818000F
:101D30008DF819000790099001208DF8280005A959
:101D40000948FEF739FE0623012200210648FEF766
:101D50005DFE01210448FEF7FEFD0DB000BD000050
:101D600000000240000802400020014000BFFEE7E2
:101D700010B5044633480078C007B0EBC47F0FD0DD
:101D800004F0010038B101202F49087002F08EFFE5
:101D900002F0A1FF04E000202B49087002F09BFF35
:101DA0002848007800F0020004F00201884221D0A7
:101DB00004F0020078B1012004F098FB00202349D0
:101DC00008702348007840F0200021490870012065
:101DD000204908700EE0002004F088FB00201B4919
:101DE00008701B48007820F0200019490870022074
:101DF0001849087004F0040040B11348007828B96D
:101E00001348007840F00100114908700D4800782F
:101E100000F0080004F0080188420FD004F0080028
:101E200030B10B48007840F040000949087005E0E7
:101E30000748007820F04000054908700148047008
:101E400010BD000009030020C9020020F00100209D
:101E500020020020080300202DE9F0412DED048B25
:101E600005460E4614461F4695ED000AAE4880ED25
:101E7000000A95ED010A80ED010A95ED020A80ED58
:101E8000020AB4F90000A0F2DC5000EE100AB8EE2D
:101E9000C00AF2EE080A80EE201AA44880ED001A6B
:101EA000B4F90200A0F2DC5000EE100AB8EEC00A4D
:101EB000F2EE080A80EE201A9C4880ED011AB4F96F
:101EC000060040F2DC51081A00EE100AB8EEC00A13
:101ED000F2EE080A80EE201A944880ED021A944827
:101EE000007828B19FED930A904880ED020A21E026
:101EF0008E4890ED020A10EE101A0846FEF73EFBDF
:101F000041EC190BB0EE490AF0EE690A05F094F8BD
:101F1000B0EE408AF0EE608A9FED870B53EC102BF9
:101F200051EC180BFEF73EFB04D29FED820A7F486E
:101F300080ED020A82480078C0F3801018B17A4917
:101F40007A4804F031FB784890ED001AF0EE410A2F
:101F5000764890ED001AB0EE410A7A4802F0E4F9B2
:101F6000714890ED011AF0EE410A704890ED011AA7
:101F7000B0EE410A744802F0D7F996ED001ADFED91
:101F8000731A21EE211AF0EE410A6E4890ED0E1AF6
:101F9000B0EE410A6E4802F0C7F996ED011ADFED86
:101FA0006B1A21EE211AF0EE410A674890ED0E1AE5
:101FB000B0EE410A674802F0B7F95C4890ED021AAA
:101FC0006548D0ED001A21EE211AB0EE410A96EDD7
:101FD000021ADFED5E1A21EE211AF0EE410A5F4887
:101FE00002F0A2F9B4F90400B42863DDF7B3B4F940
:101FF000040000EE100AB8EEC00A5548D0ED0E0AF3
:1020000030EE200A5348D0ED0E0A30EE600A5348F5
:10201000D0ED0E0A30EE600A514880ED000AB4F9A6
:10202000040000EE100AB8EEC00A4948D0ED0E0ACE
:1020300030EE600A4748D0ED0E0A30EE600A47489D
:10204000D0ED0E0A30EE200A464880ED000AB4F9C1
:10205000040000EE100AB8EEC00A3D48D0ED0E0AAA
:1020600030EE600A3B48D0ED0E0A00E022E030EE90
:10207000200A3A48D0ED0E0A30EE600A3A4880ED68
:10208000000AB4F9040000EE100AB8EEC00A3048A5
:10209000D0ED0E0A30EE200A2E48D0ED0E0A30EEBA
:1020A000200A2E48D0ED0E0A30EE200A2F4880ED8F
:1020B000000A13E09FED1F0A294880ED000A9FEDFA
:1020C0001D0A284880ED000A9FED1A0A264880ED77
:1020D000000A9FED180A254880ED000A234890ED7C
:1020E000000ABDEEC00A10EE100A03B21E4890EDC1
:1020F000000ABDEEC00A10EE100A02B2194890EDB7
:10210000000ABDEEC00A10EE100A01B2144890EDAC
:10211000000ABDEEC00A10EE100A00B201F016FE71
:10212000BDEC048BBDE8F081380B0020440B00208F
:10213000C802002000000000000000000000104065
:10214000200200205809002094090020A34C654279
:102150000C0A0020480A0020D0090020840A002030
:10216000B8020020BC020020C0020020C4020020EF
:10217000F8B500240026AA222146641C9A4842543D
:102180002146641C4254F2222146641C425400221F
:102190002146641C4254954890ED060A8DED000AD4
:1021A0009DF803202146641C8F4842549DF802206C
:1021B0002146641C42549DF801202146641C42546F
:1021C0009DF800202046611CCCB287490A548848FB
:1021D00090ED020A8DED000A9DF803202046611C57
:1021E000CCB281490A549DF802202046611CCCB231
:1021F0007D490A549DF801202046611CCCB27A49E1
:102200000A549DF800202046611CCCB276490A543D
:10221000774890ED050A8DED000A9DF803202046D1
:10222000611CCCB270490A549DF802202046611C02
:10223000CCB26D490A549DF801202046611CCCB2F5
:1022400069490A549DF800202046611CCCB26649B9
:102250000A54674890ED080A8DED000A9DF80320A6
:102260002046611CCCB260490A549DF802202146E8
:10227000601CC4B25C4842549DF801202046611C99
:10228000CCB259490A549DF800202046611CCCB2BA
:1022900055490A54574890ED020A8DED000A9DF801
:1022A00003202046611CCCB24F490A549DF80220FD
:1022B0002046611CCCB24C490A549DF801202046AE
:1022C000611CCCB248490A549DF800202046611C8C
:1022D000CCB245490A54454890ED070A8DED000AF5
:1022E0009DF803202046611CCCB23F490A549DF85A
:1022F00002202046611CCCB23B490A549DF80120C3
:102300002046611CCCB238490A549DF80020204672
:10231000611CCCB234490A543748B0F9020000EECF
:10232000100AB8EEC00ADFED350A20EE200A8DED66
:10233000000A9DF803202046611CCCB22A490A54A9
:102340009DF802202046611CCCB227490A549DF812
:1023500001202046611CCCB223490A549DF800207C
:102360002046611CCCB220490A542348B0F904002D
:1023700000EE100AB8EEC00ADFED200A20EE200AB7
:102380008DED000A9DF803202046611CCCB2164951
:102390000A549DF802202046611CCCB212490A540E
:1023A0009DF801202046611CCCB20F490A549DF8CB
:1023B00000202046611CCCB20B490A54201FC87073
:1023C000002505E00848405D3044C6B2681CC5B22F
:1023D000A542F7DB2046611CCCB203490E542146CE
:1023E0000148FFF7F3F8F8BDE20B0020900300204E
:1023F000900B00200409002014020020A704443C94
:102400007047000000201E49088048808880C880EE
:10241000088148814FF4E16088810820C88132201A
:1024200008824FF4E1604882082088823220C88206
:1024300040F6AC500883002048834FF47A708883BC
:1024400040F2A230C883052008844FF457704884B6
:1024500040F2A23088840520C8844FF45770088564
:102460004FF4FA604885322088854FF47A70C88529
:102470000020088648868886C8860887488770476F
:10248000500B002070B5FFF7BDFF3E242046E1173A
:1024900004EB91718910A4EB8101091D09B101219F
:1024A00000E0002194FBF1F1CDB22A460249034835
:1024B00002F014FE70BD0000500B00200000060862
:1024C00010B56FF0040003F02BF800204FF0E0216E
:1024D000086108480068C0080749B0FBF1F00749E7
:1024E0000860084600684FF47A7148430449086060
:1024F00010BD00001400002040420F002800002002
:102500002C00002010B5042000F06EF8002836D012
:1025100002F0AEFC1A48408B40F4807018494883A2
:10252000072001F097FD044604F0200050B10F2071
:1025300001F020FE2021272001F0A8FDFF21E1204D
:1025400001F0A4FD04F0400040B10E4801F0AEFCE3
:1025500002F044FC4021272001F098FD04F0100017
:1025600050B10F2001F006FE1021272001F08EFD52
:10257000FF21E12001F08AFD042000F005F810BDE4
:10258000000002407003002001490860704700000D
:10259000143C0140002006490860091D0860091D1F
:1025A0000860091D0860034801491431086070473C
:1025B000003C0140FFFF7F001CB50121022002F01A
:1025C00089FA0420009000208DF8040003208DF883
:1025D000050001208DF807006946024800F08BF9DC
:1025E0001CBD00000004024001460020034A12689E
:1025F0000A400AB1012000E000207047143C01406D
:10260000002123498279002A3AD00A4612680368D9
:102610009A430B461A600A1D126803689A430B1D01
:102620001A60027911440A6803681A430A60184A5A
:102630000832126803689A43154B08331A601A1D52
:10264000126803689A43124B0C331A604279102ABD
:102650000ED11A1F126803681A430D4B08331A6013
:102660001A1D126803681A43094B0C331A600DE0F7
:102670000749427911440A6803681A430A6005E071
:10268000027911440A6803689A430A60704700009F
:10269000003C01401CB50121C80302F04BFA0121A6
:1026A000880302F047FA0221012002F065FDFFF7DE
:1026B00083FFFFF76FFF0420009001208DF80600D4
:1026C00000208DF804000C208DF805006846FFF707
:1026D00097FF1CBD30B10749096841F48061054A84
:1026E000116005E00349096821F48061014A116025
:1026F00070470000003C024070B504460A460026C0
:10270000092502B909E0012A01D1160205E0022AD1
:1027100001D1160201E04FF4407600F09FF8054623
:10272000092D28D11548006820F44070134908602D
:1027300008460068304308600846006820F0F8004A
:1027400008600846006844F0020108430B4908602D
:102750000846006840F48030086000F07FF80546C5
:102760000648006820F00200044908600846006836
:1027700020F0F8000860284670BD0000103C0240C0
:1027800009201349096801F48031B1F5803F01D176
:1027900001201CE00E49096801F0100109B1062072
:1027A00015E00B49096801F4807109B102200EE0BF
:1027B0000749096801F0E00109B1072007E0044971
:1027C000096801F0020109B1082000E00920704702
:1027D0000C3C02400348006840F00040014908609A
:1027E00070470000103C024030B502460C460925F7
:1027F00000F034F80546092D19D10E48006820F480
:1028000040700C4908600846006840F40070086099
:102810000846006840F001000860146000F01EF8EF
:1028200005460448006820F0010002490860284677
:1028300030BD0000103C02400548006800F0004038
:1028400028B1044802490C39086003480860704701
:10285000103C024023016745AB89EFCD08B5092044
:102860000090FFF78DFF009002E0FFF789FF0090D6
:102870009DF800000128F8D09DF8000008BD00EB8D
:10288000810393ED000AF0EE400A29E000E0521EB9
:10289000914208DA00EB820393ED000AB4EEE00AFD
:1028A000F1EE10FAF3DA00EB820393ED000A00EB8D
:1028B000810383ED000A00E0491C914208DA00EB35
:1028C000810393ED000AB4EEE00AF1EE10FAF3D9B9
:1028D00000EB810393ED000A00EB820383ED000A15
:1028E0009142D3DB00EB8103C3ED000A00EE101A26
:1028F000B8EEC00A7047F0B50A4600210023002454
:1029000000BF3DE0012505FA01F3156805EA03045F
:102910009C4234D105684F000326BE40B543056094
:1029200015794E00B5400668354305601579012DCF
:1029300002D01579022D16D185684F000326BE40BE
:10294000B543856055794E00B5408668354385604E
:10295000456801268E40B5434560456896798E40AE
:10296000B6B235434560C5684F000326BE40B54347
:10297000C560D5794E00B540C6683543C560491C71
:102980001029BFD3F0BDF0B5002300244D07ED0E94
:1029900002FA05F3CE1000F1200555F826504E0737
:1029A000F70E0F26BE40B543CF1000F1200646F8C3
:1029B0002750CE1000F1200555F8265045EA0304B3
:1029C000CE1000F1200545F82640F0BD4183704748
:1029D0000183704710B502F07EF902F03FF96420E0
:1029E00005F064FC02F077F9642005F05FFC02F06A
:1029F00035F9642005F05AFC02F06DF9642005F009
:102A000055FC02F02BF9642005F050FC02F063F94C
:102A100010BD000010B504460623012221460848D7
:102A2000FDF7F4FF0648FEF74DF800BF0221044809
:102A3000FDF7B8FF0028F9D00148FDF7AFFF10BD42
:102A40000020014000BFFEE710B52DED068B354894
:102A5000008840F04000334908809FED330B04F0BC
:102A6000F7FAB0EE409AF0EE609A9FED310B04F069
:102A7000EFFAB0EE40AAF0EE60AA53EC192B51EC3D
:102A80001A0BFDF7E2FC41EC180BFDF75EFD41006F
:102A90000320884023491A390968814321481A389C
:102AA00001609FED210B04F0D3FAB0EE409AF0EEF6
:102AB000609A9FED1F0B04F0CBFAB0EE40AAF0EE47
:102AC00060AA53EC192B51EC1A0BFDF7BEFC41EC3C
:102AD000180BFDF73AFD41000120884011491A39D1
:102AE000096808430F491A3908600E48008840F009
:102AF00080000C490880012005F0FCFB0948801E7D
:102B0000008840F040000749891E0880022005F037
:102B1000F1FB0448008840F0400002490880BDEC09
:102B2000068B10BD1A0402400000000000000040A7
:102B300000000000000060401CB50121022001F0EF
:102B4000C9FF0121022001F0C5FF402000900120B3
:102B50008DF804008DF8060002208DF80500694606
:102B60001048FFF7C8FE8020009001208DF8040077
:102B70008DF8060002208DF8050001208DF8070071
:102B800069460848FFF7B7FE06481830008840F04D
:102B900040000449183108800846008840F0800051
:102BA00008801CBD0004024010B52DED068B364890
:102BB000008840F04000344908809FED340B04F059
:102BC00047FAB0EE409AF0EE609A9FED320B04F0B7
:102BD0003FFAB0EE40AAF0EE60AA53EC192B51EC8C
:102BE0001A0BFDF732FC41EC180BFDF7AEFC41006F
:102BF0000320884024491A390968814322481A3839
:102C000001609FED220B04F023FAB0EE409AF0EE43
:102C1000609A9FED200B04F01BFAB0EE40AAF0EE94
:102C200060AA53EC192B51EC1A0BFDF70EFC41EC8A
:102C3000180BFDF78AFC41000120884012491A391F
:102C40000968084310491A3908600F48801E008837
:102C500040F080000C49891E0880012005F04AFBE5
:102C60000948801E008840F040000749891E0880FE
:102C7000012005F03FFB0448008840F04000024975
:102C80000880BDEC068B10BD1A0402400000000055
:102C900000000040000000000000604070B52DED15
:102CA000068B054600249FED3A0B04F0D1F9B0EEF7
:102CB000409AF0EE609A9FED380B04F0C9F9B0EE3F
:102CC00040AAF0EE60AA53EC192B51EC1A0BFDF759
:102CD000BCFB41EC180BFDF738FC41000320884099
:102CE0002F49096881432E4801609FED290B04F0AC
:102CF000AFF9B0EE409AF0EE609A9FED270B04F02A
:102D0000A7F9B0EE40AAF0EE60AA53EC192B51ECF3
:102D10001A0BFDF79AFB41EC180BFDF716FC41006E
:102D2000002088401E49096808431D4908600026A4
:102D300021E01B481A30008840F0400018491A3141
:102D40000880012005F0D6FA15481830008840F0B8
:102D500040001349183108806006040E10481030F6
:102D60000068C0F3C01008B1601CC4B2012005F0B7
:102D7000C1FA701CC6B2082EDBDB15B1FFF764FE8A
:102D800001E0FFF711FF2046BDEC068B70BD00008F
:102D90000000000000000040000000000000604053
:102DA0000004024070B504460D46164600F0F4F8E3
:102DB000002141EA4401C8B200F05CF800F0D8F903
:102DC00018B100F061F9012070BD284600F052F8FA
:102DD00000F0CEF900F0E0F8012101EB4401C8B2A7
:102DE00000F048F800F0C4F90020FFF757FF3070FA
:102DF00000F04AF90020E7E72DE9F04705460F46C5
:102E000016469846002400F0C7F8002141EA450123
:102E1000C8B200F02FF800F0ABF920B100F034F99F
:102E20000120BDE8F087384600F024F800F0A0F952
:102E300000F0B2F8012101EB4501C8B200F01AF828
:102E400000F096F900240FE0701EA04204D001208B
:102E5000FFF724FF814603E00020FFF71FFF8146B4
:102E600008F80490601CC4B2B442EDDB00F00CF929
:102E70000020D6E770B52DED068B04469FED410B83
:102E800004F0E6F8B0EE409AF0EE609A9FED3F0B4A
:102E900004F0DEF8B0EE40AAF0EE60AA53EC192B75
:102EA00051EC1A0BFDF7D1FA41EC180BFDF74DFB75
:102EB0004100032088403749096881433548016053
:102EC0009FED300B04F0C4F8B0EE409AF0EE609A3B
:102ED0009FED2E0B04F0BCF8B0EE40AAF0EE60AA15
:102EE00053EC192B51EC1A0BFDF7AFFA41EC180B10
:102EF000FDF72BFB41000120884026490968084363
:102F00002449086023481A30008840F040002149D5
:102F10001A31088000252FE0E00940B11D48183023
:102F2000008840F080001B491831088007E01948EC
:102F30001A30008840F0800016491A310880600677
:102F4000040E012005F0D6F912481830008840F030
:102F50004000104918310880012005F0CBF90D48D8
:102F60001A30008840F040000A491A3108800120D8
:102F700005F0C0F9681CC5B2082DCDDBBDEC068B91
:102F800070BD0000000000000000004000000000D4
:102F9000000060400004024010B52DED068B9FED4F
:102FA000350B04F055F8B0EE409AF0EE609A9FEDC4
:102FB000330B04F04DF8B0EE40AAF0EE60AA53ECEB
:102FC000192B51EC1A0BFDF740FA41EC180BFDF7E9
:102FD000BCFA4100032088402A49096881432948F6
:102FE00001609FED240B04F033F8B0EE409AF0EE50
:102FF000609A9FED220B04F02BF8B0EE40AAF0EEA1
:1030000060AA53EC192B51EC1A0BFDF71EFA41EC98
:10301000180BFDF79AFA4100012088401949096808
:1030200008431849086017481830008840F08000AD
:103030001449183108800846008840F04000088094
:10304000042005F057F90F481A30008840F080003E
:103050000C491A310880042005F04CF909481A304F
:10306000008840F0400007491A310880BDEC068B0B
:1030700010BD000000000000000000400000000043
:10308000000060400004024010B52DED068B9FED5E
:10309000330B03F0DDFFB0EE409AF0EE609A9FED47
:1030A000310B03F0D5FFB0EE40AAF0EE60AA53EC6E
:1030B000192B51EC1A0BFDF7C8F941EC180BFDF771
:1030C00044FA410003208840284909688143274881
:1030D00001609FED220B03F0BBFFB0EE409AF0EED3
:1030E000609A9FED200B03F0B3FFB0EE40AAF0EE24
:1030F00060AA53EC192B51EC1A0BFDF7A6F941EC21
:10310000180BFDF722FA4100012088401749096891
:1031100008431649086015481A30008840F04000FE
:1031200012491A3108800846008840F08000088063
:10313000042005F0DFF80D481830008840F040000A
:103140000A49183108800846008840F0800008804D
:10315000042005F0CFF8BDEC068B10BD0000000088
:103160000000004000000000000060400004024039
:1031700010B52DED068B00249FED3A0B03F068FF90
:10318000B0EE409AF0EE609A9FED380B03F060FFCE
:10319000B0EE40AAF0EE60AA53EC192B51EC1A0BDA
:1031A000FDF753F941EC180BFDF7CFF9410003206F
:1031B00088403049096881432E4801609FED290B02
:1031C00003F046FFB0EE409AF0EE609A9FED270BB9
:1031D00003F03EFFB0EE40AAF0EE60AA53EC192BCC
:1031E00051EC1A0BFDF731F941EC180BFDF7ADF975
:1031F0004100002088401F49096808431D490860B4
:103200001C481830008840F080001A4918310880A6
:10321000012005F06FF817481830008840F0400092
:10322000144918310880012005F064F809E0601C99
:10323000C4B2FA2C05DDFFF727FF0120BDEC068B99
:1032400010BD0C4810300068C0F3C0100028EED14B
:1032500008481A30008840F0400006491A310880BA
:103260000020EBE70000000000000040000000002C
:10327000000060400004024070B504460D4616464A
:10328000FFF78AFE002141EA4401C8B2FFF7F2FDD0
:10329000FFF76EFF18B1FFF7F7FE012070BD28465B
:1032A000FFF7E8FDFFF764FF3046FFF7E3FDFFF7A8
:1032B0005FFF18B1FFF7E8FE0120EFE7FFF7E4FE3C
:1032C0000020EBE7F0B52DED108B99B004460F46CA
:1032D00015462422FE490FA8FCF78CFF97ED000A43
:1032E000F0EE409A97ED010AF0EE408A97ED020A5F
:1032F000B0EE409A94ED000AB0EE40AA94ED010AB7
:10330000F0EE40AA94ED020AB0EE40BAF14890ED1A
:10331000000A20EE000AF0EE40BA90ED000AEE48F6
:10332000D0ED000A20EE200AF0EE40DAE94890EDF8
:10333000000AEA48D0ED000A20EE200AB0EE40EA8A
:10334000E44890ED000AE648D0ED000A20EE200A9D
:103350008DED090AE04890ED000A20EE000AB0EE7B
:1033600040CA90ED000ADD48D0ED000A20EE200AA8
:103370008DED080AD84890ED000AD948D0ED000A32
:1033800020EE200AF0EE40EAD44890ED000A20EE4C
:10339000000AF0EE40CA90ED000AD148D0ED000AD4
:1033A00020EE200AB0EE40FA90ED000A20EE000A6E
:1033B000B0EE40DA29EEA80A20EE090AB5EEC00AFE
:1033C000F1EE10FA03D119B0BDEC108BF0BD69EE2F
:1033D000A90A48EEA80A49EE090AB0EE600A04F00C
:1033E000CBFFB0EE408A29EE880AF0EE409A28EE34
:1033F000880AF0EE408A29EE080AB0EE409A3EEEC6
:10340000CE0AF0EE000A60EE20FA3DEE8F0AF0EEF2
:10341000000A20EE200A8DED0E0A3BEECC0A30EEBB
:103420006C0A30EE0D0A8DED0D0A9DED0D0A28EEA9
:10343000800ADDED0E0A09EE600A8DED0C0A29EE18
:103440002F0ADDED0D0A09EEE00A8DED0B0A9DED68
:103450000E0A29EE800A08EEEF0A8DED0A0AA1484D
:10346000D0ED000A9DED0C0A9FED9F1A40EE010A77
:10347000C0ED000A9D48D0ED000A9DED0B0A9FEDBE
:103480009A1A40EE010AC0ED000A9948D0ED000AF0
:103490009DED0A0A9FED941A40EE010AC0ED000A64
:1034A0009DED0C0AB7EE081AF0EE4A0A41EE000A4A
:1034B0008C4890ED000A30EE800AB0EE40AA9DEDF7
:1034C0000B0AB7EE081AF0EE6A0A41EE000A8748C6
:1034D00090ED000A30EE800AF0EE40AA9DED0A0A57
:1034E000B7EE081AF0EE4B0A41EE000A804890ED64
:1034F000000A30EE800AB0EE40BA774890ED000A3C
:10350000B1EE400A20EE0A0A7448D0ED000A00EE3F
:10351000EA0A7348D0ED000A00EECB0A6D48D0ED00
:10352000000A9FED711A40EE010AC0ED000A90ED0D
:10353000000A20EE0A0A6948D0ED000A00EE8B0A64
:103540006748D0ED000A00EEEA0A6348D0ED000AB1
:103550009FED651A40EE010AC0ED000A5D4890ED4E
:10356000000A20EE2A0A5C48D0ED000A00EECB0AE1
:103570005B48D0ED000A00EE8A0A5848D0ED000AF8
:103580009FED591A40EE010AC0ED000A514890ED36
:10359000000A20EE0B0A5048D0ED000A00EEAA0AFD
:1035A0004E48D0ED000A00EECA0A4D48D0ED000AA0
:1035B0009FED4D1A40EE010AC0ED000A4548D0EDDE
:1035C000000A60EEA00A444890ED001AD0ED001AFF
:1035D00041EE210A414890ED001AD0ED001A41EE6B
:1035E000210A3F4890ED001AD0ED001A41EE210A61
:1035F000B0EE600A04F0C0FEB0EE408A354890EDAF
:10360000000A20EE080A80ED000A334890ED000A17
:1036100020EE080A80ED000A304890ED000A20EE06
:10362000080A80ED000A2E4890ED000A20EE080AF4
:1036300080ED000A3BEE8C0A30EE6C0A30EE4D0A4B
:103640008DED0F0A9DED080ADDED090A30EE200A26
:10365000F0EE000A20EE200A8DED100A3EEECE0AB2
:10366000F0EE000A20EE200A8DED110A9DED080A09
:10367000DDED090A30EE600AF0EE000A20EE200AC5
:103680008DED120A3BEECC0A30EE2C0A30EE4D0ADC
:103690008DED130A3FEE2D0AF0EE000A20EE200A0F
:1036A0008DED140A3EEE8E0AF0EE000A20EE200A9E
:1036B0008DED150A3FEE6D0AF0EE000A20EE200AAD
:1036C0008DED160A3BEECC0A30EE6C0A12E00000DB
:1036D0000C8700089002002094020020980200202D
:1036E0009C020020A00200200AD7A33BA4020020D5
:1036F000A802002030EE0D0A8DED170A95ED020AA2
:10370000D4ED020A9FED401A60EE810A9FED3F1A48
:1037100000EE810A85ED020A3EEECE0AF0EE000AC6
:1037200020EE200A10EE101A0846FCF727FFCDE91C
:1037300000019DED000B02F0C3FF8DED020B9DED2E
:10374000020B51EC100B81F000419FED310B53EC5B
:10375000102BCDE904019DED040B51EC100BFCF78F
:1037600002FECDE906019DED060B51EC100BFCF7B6
:1037700031FF68603BEECC0A30EE6C0A30EE0D0A89
:1037800010EE101A0846FCF7F9FEB0EE000A2FEE14
:10379000000AF0EE000A00EEAD0ACDE9020110EEDB
:1037A000101A0846FCF7EAFECDE900019DED021B68
:1037B0009DED000B03F0A0FA8DED040B9FED140BB3
:1037C00053EC102B9DED040B51EC100BFCF7CBFDD3
:1037D000CDE906019DED060B51EC100BFCF7FAFE4E
:1037E000286000260BE00FA800EB860090ED000A91
:1037F000094800EB860080ED000A701CC6B2092E55
:10380000F1DB00BFDFE50000A34C65420AD7233C93
:103810000000006066A64C40340900201CB5012160
:10382000072001F057F94FF44070009001208DF807
:10383000040000208DF8060003208DF8050069467D
:103840000E48FFF758F84FF480710C48FFF7C0F8A6
:103850004FF44040009001208DF8040000208DF8C6
:10386000060003208DF8050069460548FFF743F878
:103870004FF400410248FFF7A9F81CBD00040240C4
:103880000008024010B50A48007840B100200849FD
:1038900008704FF480710748FFF79AF806E001209E
:1038A0000349087001020348FFF790F810BD0000BB
:1038B000F10100200004024030B50546002400BF9D
:1038C0000AE005FA04F000F0080010B102F048FE2A
:1038D00001E002F023FE641C082CF2DB30BD000086
:1038E00010B5FEF7ABF923480078F0B1224890ED0F
:1038F000020AD0ED030AB4EEE00AF1EE10FA0ED29D
:103900001E4801780078401C1C4A10700A292FDDDF
:1039100000201146087001201949087028E0002095
:10392000164908701649087022E0134890ED020A03
:10393000DFED140AB4EEE00AF1EE10FA10D21248EC
:1039400001780078401C104A10700A2910DD002010
:103950000E4908701146087001200949087007E0F7
:1039600001200A49087000200749087004490870BE
:1039700010BD0000C9020020340200204A020020CD
:1039800048020020CDCC6C4049020020F00100200C
:1039900000B589B00121022001F0ACF801F008FE69
:1039A00040F2E73007906320ADF818000020ADF832
:1039B0002000ADF81A0006A9224802F059F860204C
:1039C000ADF804000120ADF8060000200390ADF82A
:1039D000100001A91B4801F0FFFE0821194801F061
:1039E00039FF0120ADF806000020039001A9154819
:1039F00001F03AFF0821134801F088FF0120ADF8DB
:103A000006000020039001A90E4801F08DFF082157
:103A10000C4801F0D9FF0120ADF80600002003900A
:103A200001A9084801F0DAFF0821064802F012F85F
:103A30000121044801F09AFE0121024801F0A5FE8F
:103A400009B000BD0004004010B504E004A002F07D
:103A5000F9FD01F0B5F900F06EF90028F6D010BDBF
:103A60000D4D505539323530206E6F20636F6E6EBC
:103A70006563742E2E2E0D0A0000000010B5FFF7AE
:103A8000E3FF80216B2000F041F9642004F00EFC7C
:103A900001216B2000F03AF90021382000F036F9BE
:103AA00003211D2000F032F90021192000F02EF929
:103AB0000221372000F02AF904211A2000F026F90B
:103AC00018211B2000F022F908211C2000F01EF90B
:103AD00010BD00000FB52B480088A0B90020ADF83C
:103AE0000000ADF80200ADF804002749086027493E
:103AF000086027490860012022490880002300202F
:103B0000108050809080BDF900001F49096808446A
:103B10001D490860BDF902001C49096808441B4999
:103B20000860BDF90400C01A194909680844184919
:103B3000086014480088C8281DD11348006811493E
:103B4000098890FBF1F000B21080104800680D4920
:103B5000098890FBF1F000B250800D4800680949D7
:103B6000098890FBF1F000B29080002005490880A0
:103B7000012004B000BD03480088401C01490880B2
:103B80000020F6E730020020240200202802002056
:103B90002C0200201CB5444840784349097840EA8B
:103BA000012042490988401A00B2414908803E4834
:103BB000C0783D49897840EA01203C494988401A4B
:103BC00000B23B494880384840793749097940EA92
:103BD000012036498988401A00B235498880324828
:103BE000407A3149097A40EA012032490988401A6D
:103BF00000B2314908802C48C07A2B49897A40EAC2
:103C000001202C494988401A00B22B494880264897
:103C1000407B2549097B40EA012026498988401AD2
:103C200000B2254988802548007800F00100E0B105
:103C30000846016800918088ADF8040000231D4A01
:103C4000DDE90001FFF746FF78B11C48007820F05D
:103C500001001A49087000F03FFCFEF7BBFE174850
:103C6000007840F002001549087014480078C0F34D
:103C70004000B8B10E48016800918088ADF804009A
:103C800042F20403094ADDE90001FFF723FF48B1CE
:103C90000A48007820F002000849087000F01CFC77
:103CA000FCF73AFE1CBD0000D00300200E020020ED
:103CB00014020020080200201A0200202002002026
:103CC00010B5034A0E213B2000F011F810BD000092
:103CD000D003002070B504460D462A4621466920CF
:103CE000FFF760F808B1012070BD0020FCE770B557
:103CF00004460D46164633462A4621466920FFF7FC
:103D00007BF808B1012070BD0020FCE770B50446C7
:103D10000D462A4621466920FFF7AEFA08B1012078
:103D200070BD0020FCE708B569467520FFF7D2FF9B
:103D30009DF8000008BD10B5FFF7F5FF712801D10F
:103D4000012010BD0120FCE700BFFEE710B5B0F573
:103D50007A7F01DD4FF47A70B1F57A7F01DD4FF49F
:103D60007A71B2F57A7F01DD4FF47A72B3F57A7F1A
:103D700001DD4FF47A73002800DA0020002900DA10
:103D80000021002A00DA0022002B00DA0023044C74
:103D90002060241D2160241D2260241D236010BD8D
:103DA000340400407047000010B504E004A002F0A5
:103DB00049FC00F09DFF00F0E7F80028F6D010BDA8
:103DC0000D4E524632343031206E6F20636F6E6E6E
:103DD0006563742E2E2E0D0A0000000010B51D48DC
:103DE000408B40F480701B4948830321232000F05E
:103DF0004DF905221849302000F0A0F80522164997
:103E00002A2000F09BF81A21242000F03FF901211C
:103E1000222000F03BF90121212000F037F9202178
:103E2000312000F033F905220C492A2000F086F8F1
:103E30001E21252000F02AF92721262000F026F94E
:103E40000F2000F097F90348008B40F4807001497F
:103E5000088310BD00000240FC0100200102002088
:103E60002DE9F04107460C4615460F48008840F4FE
:103E700080500D490880384601F094F880460026AD
:103E800005E0FF2001F08EF82070641C761CAE4225
:103E9000F7DB0548801E008840F480500249891EE7
:103EA00008804046BDE8F0811A04024010B504467F
:103EB0000A48408B40F480700849488320222146FC
:103EC0006120FFF7CDFFFF21E22000F0DFF803487B
:103ED000008B40F480700149088310BD000002404F
:103EE00010B504461348408B40F480701149488354
:103EF00005221149302000F021F805220E492A2020
:103F000000F01CF820222146A02000F017F80E2116
:103F1000202000F0BBF87E21272000F0B7F80548EC
:103F2000008B40F48070034908830A2004F0E2F912
:103F300010BD000000000240FC0100202DE9F0410E
:103F400007460C4615460F48008840F480500D493E
:103F50000880384601F026F88046002604E02078E4
:103F600001F020F8641C761CAE42F8DB0548801E88
:103F7000008840F480500349891E08804046BDE80F
:103F8000F08100001A0402401CB510A103C9CDE95C
:103F90000001052269463020FFF7D0FF052269465F
:103FA0001020FFF75DFF002406E01DF80400A5289F
:103FB00000D003E0601CC4B2052CF6DB00BF052C6A
:103FC00001D000201CBD0120FCE70000A5A5A5A58F
:103FD000A50000001CB50121032000F07BFD01209D
:103FE0008DF8040000208DF8060002208DF80500F1
:103FF00001208DF807000003009069461348FEF782
:104000007AFC4FF480511148FEF7E0FC4FF48070C9
:10401000009069460E48FEF76EFC4FF480710C4824
:10402000FEF7D4FC00F058FFFFF7BEFE074818303B
:10403000008840F480500549183108800448408BBE
:1040400040F48070024948831CBD00000004024017
:104050000000024070B504460B48008840F48050D0
:1040600009490880204600F09DFFFF2000F09AFFDC
:1040700005460548801E008840F480500249891E8C
:104080000880284670BD00001A04024070B505463D
:104090000C460B48008840F48050094908802846A7
:1040A00000F080FF0646204600F07CFF0448801E9A
:1040B000008840F480500249891E0880304670BD57
:1040C0001A04024010B513480078322810DD4FF072
:1040D000E0218869FCF786F8FCF77AF8322190FB3A
:1040E000F1F201FB12000B49087000F0F5F90FE046
:1040F0000948007907490978884209D005480078BD
:10410000054908710348007804490871FFF766FE05
:1041100010BD0000FB010020FC0100200102002076
:1041200010B50F480078C8B90E48007850B10E4855
:1041300000780E490978884204D102F019F800F09D
:10414000D7FD0BE00748007820B10948007808B98E
:1041500000F0ACFD044800780449087010BD000070
:10416000C8020020C9020020FE0200200A0300202D
:104170004802002010B504460E2C14D11648408B7E
:1041800040F48070144948830E212020FFF77EFF01
:104190007E212720FFF77AFF0F48008B40F48070C4
:1041A0000D49088316E00C48408B40F480700A49A2
:1041B00048830F212020FFF769FF7E212720FFF78A
:1041C00065FF0548008B40F4807003490883C820D0
:1041D00004F090F810BD00000000024070B500210E
:1041E00000230F22C4781CB3174C246804F4E06445
:1041F000C4F5E064C4F30721C1F10404E3B20A4149
:1042000044789C40E1B28478144021430C07210E8D
:104210000E4C05786155047804F01F050124AC406C
:1042200005786D11AD0005F1E025C5F8004109E004
:10423000047804F01F050124AC40054D0678761182
:1042400045F8264070BD00000CED00E000E400E001
:1042500080E100E002490143024A1160704700001A
:104260000000FA050CED00E008B54FF4A060FFF780
:10427000F1FF1E208DF8000001208DF801008DF85F
:1042800002008DF803006846FFF7A8FF26208DF88E
:10429000000002208DF8010001208DF802008DF849
:1042A00003006846FFF79AFF25208DF800000220E2
:1042B0008DF801008DF8020001208DF8030068469A
:1042C000FFF78CFF08208DF8000002208DF8010018
:1042D00003208DF8020001208DF803006846FFF7E7
:1042E0007DFF08BD70B504460D46002606E0A278A5
:1042F0002178607800F0BFFC701CC6B2AE42F6DBDD
:1043000070BD000010B504462CB14FF400510548B3
:10431000FEF75EFB04E04FF400510248FEF756FB47
:1043200010BD00000008024030EE601A80ED031A54
:1043300090ED031AD0ED061A31EE611A80ED051AE0
:1043400090ED001AD0ED031A21EE211A80ED0B1A20
:1043500090F8281001EE101AB8EE411AD0ED011AAB
:1043600021EE211AD0ED041A21EE211A80ED0C1A4B
:1043700090ED021AD0ED051A21EE211A80ED0D1AEA
:1043800090ED0B1AD0ED0C1A31EE211AD0ED0D1A6A
:1043900031EE211A80ED0E1A27490978012942D100
:1043A0002649B1F90410B4293DDB90ED081AB4EEAA
:1043B000E01AF1EE10FA08D390ED081AB1EE411AA6
:1043C000B4EEE01AF1EE10FA03DD002180F82810B7
:1043D0002DE0012180F8281090ED041AD0ED031A89
:1043E00031EE211A80ED041A90ED041AD0ED091A6D
:1043F000B4EEE11AF1EE10FA03DD90ED091A80ED4A
:10440000041A90ED041AD0ED091AF1EE611AB4EE17
:10441000E11AF1EE10FA0AD290ED091AB1EE411A42
:1044200080ED041A03E09FED061A80ED041A90ED6A
:10443000031A80ED061A7047C9020020000300200D
:104440000000000070B53E242046E11704EB917196
:104450008910A4EB8101091D09B1012100E00021AF
:1044600094FBF1F1CDB22A460E490F4800F022FE2E
:1044700001F040FB0B48808C4FF6FF7188420DD154
:104480000848C08B884209D10648408D884205D132
:10449000FDF7F8FF05A002F0D5F802E009A002F050
:1044A000D1F870BD500B002000000608466C617307
:1044B000682052656164204572726F722121210D5E
:1044C0000A000000466C6173682052656164204FE9
:1044D0004B2121210D0A000070B500F01BF83E248D
:1044E0002046E11704EB91718910A4EB8101091DAD
:1044F00009B1012100E0002194FBF1F1CDB22A467F
:104500000249034800F0EAFD70BD0000500B002096
:10451000000006089B4800889B490880994840880D
:10452000488098488088888098480088C880974844
:1045300040880881954880884881954890ED000A18
:10454000DFED940A20EE200ABCEEC00A10EE100A3D
:1045500088818F4890ED010ADFED8E0A20EE200A57
:10456000BCEEC00A10EE100AC881894890ED020A1C
:10457000DFED880A20EE200ABCEEC00A10EE100A19
:104580000882854890ED000ADFED820A20EE200ABD
:10459000BCEEC00A10EE100A48827F4890ED010A76
:1045A000DFED7C0A20EE200ABCEEC00A10EE100AF5
:1045B0008882794890ED020ADFED760A20EE200A23
:1045C000BCEEC00A10EE100AC882744890ED000AD2
:1045D000DFED700A20EE200ABCEEC00A10EE100AD1
:1045E00008836E4890ED010ADFED6A0A20EE200A8A
:1045F000BCEEC00A10EE100A4883684890ED020A2B
:10460000DFED640A20EE200ABCEEC00A10EE100AAC
:104610008883634890ED000ADFED5E0A20EE200AF1
:10462000BCEEC00A10EE100AC8835D4890ED010A86
:10463000DFED580A20EE200ABCEEC00A10EE100A88
:104640000884574890ED020ADFED520A20EE200A56
:10465000BCEEC00A10EE100A4884524890ED000AE1
:10466000DFED4C0A20EE200ABCEEC00A10EE100A64
:1046700088844C4890ED010ADFED460A20EE200ABE
:10468000BCEEC00A10EE100AC884464890ED020A3B
:10469000DFED400A20EE200ABCEEC00A10EE100A40
:1046A0000885414890ED000ADFED3A0A20EE200A25
:1046B000BCEEC00A10EE100A48853B4890ED010A96
:1046C000DFED340A20EE200ABCEEC00A10EE100A1C
:1046D0008885354890ED020ADFED2E0A20EE200A8B
:1046E000BCEEC00A10EE100AC885304890ED000AF2
:1046F000DFED280A20EE200ABCEEC00A10EE100AF8
:1047000008862A4890ED010ADFED220A20EE200AF1
:10471000BCEEC00A10EE100A4886244890ED020A4A
:10472000DFED1C0A20EE200ABCEEC00A10EE100AD3
:1047300088861F4890ED000ADFED160A20EE200A59
:10474000BCEEC00A10EE100AC886194890ED010AA6
:10475000DFED100A20EE200ABCEEC00A10EE100AAF
:104760000887134890ED020ADFED0A0A20EE200ABE
:10477000BCEEC00A10EE100A48870E480078888701
:10478000704700000E020020500B0020080200209D
:104790005809002000007A4494090020D009002024
:1047A0000C0A0020480A0020840A0020C00A0020C9
:1047B000FC0A0020FB010020704700000020344963
:1047C00081F828009FED330A084680ED080A9FED26
:1047D000320A80ED090A0020304981F828009FED57
:1047E000300A084680ED080A9FED2E0A80ED090A7E
:1047F00000202D4981F828009FED260A084680ED0B
:10480000080A9FED250A80ED090A0020274981F852
:1048100028009FED230A084680ED080A9FED210A33
:1048200080ED090A0020224981F828009FED210A25
:10483000084680ED080A9FED200A80ED090A002055
:104840001E4981F828009FED160A084680ED080AE7
:104850009FED1B0A80ED090A00201A4981F8280003
:104860009FED190A084680ED080A9FED170A80EDB2
:10487000090A0020154981F828009FED150A08460D
:1048800080ED080A9FED0E0A80ED090A70470000CE
:104890000C0A002000007A430000FA445809002066
:1048A00000000C4200007A44480A002094090020CD
:1048B000840A00200000164300009644D00900201E
:1048C00000004843C00A002000000000FC0A00204D
:1048D0000000C84210B5FFF7F3F9FFF75BF90C22AF
:1048E0006249634800F072FD604890ED000ADFED18
:1048F000610A20EE200ADFED600A20EE200A80ED3A
:10490000000A90ED010ADFED5B0A20EE200ADFEDE0
:104910005A0A20EE200A80ED010A90ED020ADFED2E
:10492000550A20EE200ADFED540A20EE200A80ED21
:10493000020A5248B0F9000000EE100AB8EEC00AB0
:10494000DFED4F0A20EE200A4E4880ED000A4B486A
:10495000B0F9020000EE100AB8EEC00ADFED480A16
:1049600020EE200A474880ED010A4448B0F90400CF
:1049700000EE100AB8EEC00ADFED410A20EE200A70
:10498000404880ED020A40480078E8B3374890ED8F
:10499000000ADFED3E0A20EE200A3D48D0ED000A75
:1049A0009FED3C1A00EE810A304880ED000A90ED40
:1049B000010ADFED360A20EE200A3548D0ED010A63
:1049C0009FED341A00EE810A284880ED010A90ED2F
:1049D000020ADFED2E0A20EE200A2D48D0ED020A51
:1049E0009FED2C1A00EE810A204880ED020A90ED1E
:1049F000000A274880ED000A1C4890ED010A24486F
:104A000080ED010A194800E004E090ED020A204818
:104A100080ED020A154890ED000A1F4880ED000A5B
:104A2000124890ED010A1C4880ED010A0F4890EDF4
:104A3000020A194880ED020A90ED000AB5EEC00A9C
:104A4000F1EE10FA10D090ED010AB5EEC00AF1EEC9
:104A500010FA09D090ED020AB5EEC00AF1EE10FA94
:104A600002D001200D49087010BD0000040900208B
:104A70001402002040DAFF380AE81C411A02002024
:104A800045798B3AEC080020AC0200206666663F50
:104A90001C090020CDCCCC3D280900208C02002030
:104AA000F0B507460D461646B54212DA324629469B
:104AB0003846FDF7E4FEBDEEC00A10EE104A621E55
:104AC00029463846FFF7ECFF3246611C3846FFF7AF
:104AD000E7FFF0BD29B1064A12680243044B1A6091
:104AE00004E0034A12688243014B1A6070470000D9
:104AF0003038024029B1064A12680243044B1A605A
:104B000004E0034A12688243014B1A6070470000B8
:104B10004038024029B1064A12680243044B1A6029
:104B200004E0034A12688243014B1A607047000098
:104B30002038024029B1064A12680243044B1A6029
:104B400004E0034A12688243014B1A607047000078
:104B50004438024029B1064A12680243044B1A60E5
:104B600004E0034A12688243014B1A607047000058
:104B700024380240F0B5002100220024022500263E
:104B80000223324F3F6807F00C0121B1042905D000
:104B9000082937D105E02E4F076036E02D4F07601A
:104BA00033E02A4F3F1F3F68C7F38056274F3F1F10
:104BB0003F6807F03F036EB1264FB7FBF3F7DFF80E
:104BC0008CC0ACF1040CDCF800C0CCF3881C07FBF3
:104BD0000CF40CE01E4FB7FBF3F7DFF870C0ACF13C
:104BE000040CDCF800C0CCF3881C07FB0CF4174F56
:104BF0003F1F3F68C7F301477F1C7D00B4FBF5F7FB
:104C0000076002E0124F076000BF00BF0F4F3F6810
:104C100007F0F0010909104F7A5C0768D740476038
:104C20000A4F3F6807F4E051890A0B4F7A5C4768E6
:104C3000D7408760054F3F6807F46041490B064F36
:104C40007A5C4768D740C760F0BD00000838024072
:104C50000024F40000127A000B03002010B5002499
:104C600006E0FF220021084600F005F8601CC4B2EF
:104C7000042CF6DB10BD70B506460C4615463046D2
:104C8000FEF71AFE2046FEF717FE2846FEF714FE32
:104C900070BD10B5002406E0FF2200211046FFF78A
:104CA000EAFF601CC4B2042CF6DB10BD10B5002472
:104CB0000EE0022C05DA00221146FF20FFF7DBFF91
:104CC00004E00022FF211046FFF7D5FF601CC4B2AC
:104CD000042CEEDB10BD10B5002406E000221146C6
:104CE0001046FFF7C8FF601CC4B2042CF6DB10BDF1
:104CF00010B5002406E00022FF211046FFF7BBFF9D
:104D0000601CC4B2042CF6DB10BD0000F0B5002519
:104D100000260027264801780078401C244A10709D
:104D2000102907DB00201146087022480078401C3B
:104D300020490870002431E01F480078042802DD73
:104D400000201D4908701D481A49097800EB8110A0
:104D50001949097850F82100C0F30745174815494B
:104D6000097800EB81101449097830F82100C0F36C
:104D7000072612480F49097800EB81100E4909787F
:104D800010F821703A4629463046FFF774FF0A486A
:104D90000078401C08490870601CC4B2042CCBDBAE
:104DA00004480078072802D1002002490870F0BDAD
:104DB000F6010020F5010020F40100203000002061
:104DC00010B5002406E000221146FF20FFF753FF34
:104DD000601CC4B2042CF6DB10BD000010B500202E
:104DE0001F4908701F48C07AA52800D010BD1D4873
:104DF000007800F0010020B31A4880781949C9787A
:104E000040EA012000B21849C880164800791549C7
:104E1000497940EA012000B213498880114880791D
:104E20001049C97940EA012000B20F4908800D48B5
:104E3000007A0C49497A40EA012000B20A494880C8
:104E400008E00848007800F0080018B105494878E3
:104E5000FCF78EFF0348807A0449087000BFC5E75D
:104E6000C80200207003002000030020FE02002082
:104E700010B50A48007840B10020084908704FF486
:104E800000410748FDF7A4FD06E001200349087032
:104E9000C1030348FDF79AFD10BD0000F201002098
:104EA0000008024010B50A48007840B100200849C7
:104EB00008704FF480410748FDF78AFD06E00120A5
:104EC0000349087081030348FDF780FD10BD000011
:104ED000F30100200008024000B587B0012144F230
:104EE0000200FFF7F7FD05220D212C48FDF74BFDD1
:104EF00005220E212948FDF746FD05220F212748EE
:104F0000FDF741FD02208DF818008DF819000020F2
:104F10008DF81A0002208DF81B000003059005A9EA
:104F20001E48FDF7E8FC4FF48040059005A91B489A
:104F3000FDF7E1FC4FF40040059005A91748FDF787
:104F4000DAFC01218803FFF7D5FD00214FF48040F2
:104F5000FFF7E0FD4FF48270ADF802000020ADF8DD
:104F60000000ADF80400ADF80600ADF808004FF4FD
:104F70000070ADF80A001020ADF80C000020ADF86C
:104F80000E000720ADF810006946054800F040F813
:104F90000121034800F022F807B000BD00040240E0
:104FA0000038004010B5044600BF02210A4800F056
:104FB00021F80028F9D02146074800F027F800BF63
:104FC0000121054800F016F80028F9D0024800F049
:104FD0001AF8C0B210BD00000038004021B10288AC
:104FE00042F04002028004E002884FF6BF731A408C
:104FF000028070470246002013890B400BB101204C
:1050000000E0002070470146888970478181704721
:1050100010B50022028802F441520B884C882343C9
:105020008C882343CC8823430C8923434C89234316
:105030008C892343CC8923431A430280838B4FF20C
:10504000FF74234083830B8A038210BD01461248FC
:10505000814201D2002070471048814201D20820CD
:10506000F9E70F48814201D21020F4E70D48814250
:1050700001D21820EFE70C48814201D22020EAE754
:105080000A48814201D22820E5E70948814201D23D
:105090003020E0E73820DEE700400008008000080C
:1050A00000C0000800000108000002080000040819
:1050B0000000060830B503460C461546002206E0FF
:1050C000184600F007F844F822001B1D521CAA42A3
:1050D000F6D330BD01460868704700002DE9F0475F
:1050E00004460E4617464FF009080025A946B4F1BC
:1050F000006F02D304F0030008B1BDE8F087FDF7AC
:105100009BFB0020FDF7E6FA254604EB87091848CB
:10511000854215D211E02846FFF7DCFF401C58B14C
:105120002846FFF793FF82460221FDF7E5FA804605
:10513000B8F1090F01D002E02D1D4D45EBD300BFA2
:10514000B8F1090F0CD108E020463168FDF74CFB9F
:10515000092800D003E0241D361D4C45F4D300BFC0
:105160000120FDF7B7FAFDF735FB00BFC5E70000EA
:105170000000FF1F7047000030B500228B071C0F96
:105180000F2303FA04F20B4B8C1053F82430934393
:10519000084C8D1044F8253023468C1053F82430E9
:1051A0008C07240F00FA04F42343024C8D1044F8BA
:1051B000253030BD0838014008B54248007830B18C
:1051C0004148007840F010003F49087005E03E4833
:1051D000007820F010003C490870FF203B4908701F
:1051E0003948007848703A48B0F9040000909DF8BA
:1051F000010088709DF80000C870364890ED020AE2
:10520000DFED350A20EE200ABDEEC00A10EE100ACE
:1052100000B200909DF8010008719DF800004871EF
:105220002C4890ED010ADFED2C0A20EE200ABDEE9D
:10523000C00A10EE100A00B200909DF801008871BB
:105240009DF80000C871234890ED000ADFED220AA6
:1052500020EE200ABDEEC00A10EE100A00B2009047
:105260009DF8010008729DF8000048721B4890EDFF
:10527000070ADFED190A20EE200ABDEEC00A10EE83
:10528000100A00B200909DF8010088729DF800009D
:10529000C872134890ED020ADFED0F0A20EE200AD3
:1052A000BDEEC00A10EE100A00B200909DF8010099
:1052B00008739DF800004873A52088730846FEF720
:1052C0000FFE08BDC902002020020020500300206C
:1052D00000030020E00800200000C84290030020E6
:1052E000340200200CB50020019000903348006883
:1052F00040F480303149086000BF3048006800F455
:10530000003000900198401C0190009818B9019855
:10531000B0F5A04FF1D12948006800F4003010B179
:105320000120009001E0002000900098012844D165
:1053300022484030006840F08050204940310860E9
:105340001F48006840F440401D4908601B48083071
:1053500000681A4908310860084600680860084675
:10536000006840F4805008601648091F0860081F54
:10537000006840F08070091F086000BF0F48006897
:1053800000F000700028F9D040F202700E49086069
:105390000A480830006820F0030008490831086016
:1053A0000846006840F00200086000BF034808306B
:1053B000006800F00C000828F8D10CBD003802404D
:1053C0000070004008644107003C0240F0B52DED3C
:1053D000048B06460F4614469FED4B0AB0EE408AFA
:1053E0009FED490AF0EE408A9FED470AB0EE409AE1
:1053F000B6F9000000EE100AB8EEC00A434844496E
:10540000097800EB810080ED000AB6F9020000EE99
:10541000100AB8EEC00A3F483D49097800EB810008
:1054200080ED000AB6F9040000EE100AB8EEC00ADA
:1054300039483749097800EB810080ED000A34488B
:105440000078401C3249087008460078A04205DA0E
:105450003248007810B1BDEC048BF0BD00202F491C
:105460000870621E00212948FFF71AFB621E002106
:105470002848FFF715FB621E00212748FFF710FBA5
:1054800001251CE0214800EB850090ED000A30EE7C
:10549000080AB0EE408A1F4800EB850090ED000A34
:1054A00030EE280AF0EE408A1B4800EB850090EDB4
:1054B000000A30EE090AB0EE409A681CC5B2601EC0
:1054C000A842DFDC12480078A04202DB002010492D
:1054D0000870A01E00EE100AB8EEC00AC8EE000A5E
:1054E000C7ED000A00EE100AB8EEC00AC8EE800A46
:1054F000C7ED010A00EE100AB8EEC00AC9EE000AB4
:10550000C7ED020A00BFA6E70000000080040020EB
:1055100080020020D004002020050020810200200D
:10552000042808D14FF0E021096941F004014FF04F
:10553000E022116107E04FF0E021096921F0040148
:105540004FF0E0221161704710B51548006840F433
:105550007000134908601348006840F001001149C9
:10556000086000200F49083108600E4800680E49A5
:1055700008400C4908600D48091D0860081F0068B4
:1055800020F48020091F0860002006490C310860C3
:10559000FFF7A8FE4FF0006001498039086010BD98
:1055A00088ED00E000380240FFFFF6FE10300024D6
:1055B0001CB501210220FFF79DFA01210320FFF70E
:1055C00089FA02208DF8040003208DF805000020E0
:1055D0008DF8060001208DF80700C0200090694674
:1055E0000E48FDF788F90320009069460C48FDF746
:1055F00082F9022206210948FDF7C5F90222072196
:105600000648FDF7C0F9022200210548FDF7BBF965
:10561000022201210248FDF7B6F91CBD000002403C
:105620000004024010B50121334800F0BAF8002808
:105630005AD032480088401C3049088030480088E1
:10564000401C2F4908802F480088401C2D490880A5
:105650002D480088401C2C4908802C480088401C9C
:105660002A4908802A480088401C29490880234884
:105670000088022805DB00202049088001202549F8
:1056800008701F480088052805DB00201C49088099
:105690000120214908701B4800880A2805DB0020EA
:1056A0001849088001201D4908701748008864289F
:1056B00005DB0020144908800120194908701348AF
:1056C0000088C82805DB0020104908800120154902
:1056D00008700F480088B0F5C87F05DB00200C4932
:1056E00008800120104908700121034800F04AF8A1
:1056F000FFF7D8FB10BD00000008004008000020A4
:105700000A0000200C0000200E00002010000020E5
:1057100012000020070000200400002003000020E9
:105720000200002005000020060000200EB5012127
:105730000420FFF7DFF940F2E73001906320ADF875
:1057400000000020ADF80800ADF8020069460648E8
:1057500000F08EF901221146034800F033F80121D0
:10576000014800F012F80EBD0008004021B1028887
:1057700042F08002028004E002884FF67F731A40F4
:1057800002807047CA430282704721B1028842F00A
:105790000102028004E002884FF6FE731A40028084
:1057A000704730B50246002000230024158A05EA20
:1057B0000103958905EA010413B10CB1012000E051
:1057C000002030BD1AB183890B43838102E08389B5
:1057D0008B4383817047000070B5002400220023B2
:1057E000058C4FF6FE7635400584028C8388048B49
:1057F0004FF68F752C40B51E2C400D882C43751E1E
:105800002A408D892A434D882A43104DA84202D050
:105810000F4DA84213D14FF6F7752A40CD892A4380
:105820004FF6FB752A408D882A434FF6FF652B40C3
:105830004FF6FF552B400D8A2B434D8A2B43838017
:1058400004838D684563028470BD00000000014040
:10585000000401400A460021018B4FF6F7731940FE
:10586000114301837047000070B50024002200231B
:10587000058C4FF6EF7635400584028C8388048BC7
:1058800048F6FF752C404FF6FF452C400D884FF62B
:10589000FF7606EA05252C434FF6DF752A408D89F1
:1058A00006EA05152A434D8806EA05152A43154DD3
:1058B000A84202D0144DA8421DD14FF67F752A4050
:1058C000CD894FF6FF7606EA05152A434FF6BF75D8
:1058D0002A408D8806EA05152A434FF6FF352B40EE
:1058E0004FF2FF752B400D8A06EA85052B434D8A42
:1058F00006EA85052B43838004838D6885630284D3
:1059000070BD000000000140000401400A46002173
:10591000018B4FF2FF7319404FF6FF7303EA022326
:10592000194301837047000070B500240022002352
:10593000058C4FF6FF6635400584028C8388848B86
:105940004FF68F752C404FF6FC752C400D882C437C
:105950004FF6FF552A408D894FF6FF7606EA05255A
:105960002A434D8806EA05252A43154DA84202D050
:10597000144DA8421DD14FF2FF752A40CD894FF634
:10598000FF7606EA05252A434FF6FF352A408D8823
:1059900006EA05252A434EF6FF752B404DF6FF75A6
:1059A0002B400D8A06EA05152B434D8A06EA05159C
:1059B0002B43838084838D68C563028470BD00009F
:1059C00000000140000401400A460021818B4FF68F
:1059D000F7731940114381837047000070B50022AE
:1059E00000230024058C4EF6FF7635400584038C99
:1059F0008488828B48F6FF752A404FF6FF452A407F
:105A00000D884FF6FF7606EA05252A434DF6FF7509
:105A10002B408D8906EA05352B434D8806EA05356E
:105A20002B430A4DA84202D0094DA84208D14BF69B
:105A3000FF752C400D8A4FF6FF7606EA85152C433C
:105A4000848082838D680564038470BD00000140FA
:105A5000000401400A460021818B4FF2FF73194078
:105A60004FF6FF7303EA0223194381837047000056
:105A700000220288184B98420ED0184B98420BD047
:105A8000B0F1804F08D0164B984205D0154B984284
:105A900002D0154B984204D14FF68F731A404B88B1
:105AA0001A43124B984207D0114B984204D04FF63C
:105AB000FF431A400B891A4302804B68C3620B886C
:105AC0000385054B984202D0044B984201D18B7A52
:105AD00003860123838270470000014000040140D7
